:020000020000FC
:100000005398549A5C98C4E7D0E04A9901D0FDCF48
:1000100018E2539A5B9A22D05B98539801D00895C6
:100020004B9BFECF00E0009385000093840001E02D
:100030000093810002D05C9808954B99FECF00E0B8
:100040000093810060918400709185005C9A27EB99
:1000500037E142E007D011D0000008951A9511232E
:10006000E9F7089588942140304040404423D1F777
:100070003323C1F72223B1F708958827991BE1E1C3
:10008000661F771FEA9509F40895881F991F8C1B36
:100090009D0B20F48C0F9D1F8894F2CF0894F0CF15
:00000001FF
