:020000020000FC
:100000005398549A5C984A9901D0FDCF68E2539A6C
:100010005B9A1ED05B98539801D008954B9BFECFFE
:10002000A0E0A0938500A0938400A2E0A0938100AB
:1000300002D05C9808954B99FECFA0E0A093810078
:1000400000918400109185005C9A11D00000089501
:100050006A956623E9F7089588947140804090403E
:100060009923D1F78823C1F77723B1F7089525E3C2
:10007000D22E22E0E22E1E9DA0010D9D90011D9D1D
:10008000DD24300D411D5D1DE09E300D411D5D1DC7
:1000900024E7D22E4D9D202D312D5D9D300D201B4E
:1000A000310B30F4275C3F4F19F010F44F5F5F4F76
:0200B0000895B1
:00000001FF
