:020000020000FC
:100000005398549A5C9817E61093C40010E010932C
:10001000C50008E10093C1004A9901D0FDCF68E214
:10002000539A5B9A23D05B98539808D05C9A09D076
:1000300019D03BD02DD01ED05C9808954B9BFECF9D
:100040000895A0E0A0938500A0938400A2E0A0936F
:1000500081000895A0E0A093810000918400109198
:10006000850008954B99FECFF5DF08956A956623C4
:10007000E9F7089577EB87E192E08894714080403A
:1000800090409923D1F78823C1F77723B1F70895DA
:100090001091C00015FFFCCF5093C6001091C00016
:1000A00015FFFCCF4093C600089525E3D22E22E031
:1000B000E22E1E9DA0010D9D90011D9DDD24300DA1
:1000C000411D5D1DE09E300D411D5D1D24E7D22EBA
:1000D0004D9D202D312D5D9D300D201B310B30F4B9
:0E00E000275C3F4F19F010F44F5F5F4F0895FB
:00000001FF
